:0603310048656C6C6F00D2
:0403370002130000AD
:100123001202FA7B417D017F011203277BFF7A03D1
:1001330079317D037F01120271750C027B177A00FE
:100143007D097F011202B2750C017BFA7AFF7D0CE7
:100153007F01120193750C027BA87A007D0F7F014A
:100163001201CD750C087BAA7A007D017F02120271
:10017300060514E514700205137FE87E031202E5F9
:10018300750C04AB14AA137D0A7F021202B280E13C
:06030E00C2A58F80D2A7FA
:080314007F027EEFDEFEDFFC3C
:01031C0022BE
:0A031D00C2A612030EC2A7020314C9
:10029400CFCDCFCECCCE1200427C007D0A120042DC
:0402A400ED2430FF16
:0A02A800D2A612030EC2A70203142F
:1002CF00AE07BE0104ED148006BE0209ED243F44C3
:0602DF0080FF12031D2246
:1002FA007F3812031D7F0C12031D7F0612031D7F18
:04030A000102031DCC
:0A032700AC031202CFAF040202A8DB
:060271008B088A09890ACE
:100277001202CFE4FDAB08AA09A90A8D8275830093
:0C028700120003FF60061202A80D80E9BF
:010293002248
:0C023E007F0AEA24FFFDE434FFFC7E0090
:08024A008E0F8F108C118D1234
:100252007F017E00E4FBEBC39512E5116480F87424
:0E0262008098500AAC0FAD101200300B80E8EF
:01027000226B
:0402B2008A0A8B0B1E
:1002B6001202CFAA0CEAD39400400D12023EAC0AF9
:0802C600AD0B1202941A80ED49
:0102CE00220D
:100193001202CFC3EA64809480400B7F2B1202A823
:1001A3008A0D8B0E800E7F2D1202A8C3E49BF50EE1
:1001B300E49AF50DAA0CEAD39400400D12023EAC6A
:0901C3000DAD0E1202941A80ED3C
:0101CC002210
:0401CD008A0A8B0B04
:1001D1001202CFAA0CEAD3940040297F10120240E8
:1001E100AC0AAD0BCFCDCFCECCCE120042EF540F27
:1001F100FEC3940AEE5004243080022437FF120219
:04020100A81A80D1E6
:0102050022D6
:040206008A0A8B0BCA
:10020A001202CFAA0CEAD394004028EA24FFFDE4A4
:10021A0034FFFC7F027E0012024AAC0AAD0BCFCD3E
:10022A00CFCECCCE120042EF54012430FF1202A8E6
:03023A001A80D255
:01023D00229E
:1002E500EF1FAC0670011E4C600A7D027CEFDCFE40
:0402F500DDFC80ECC0
:0102F90022E2
:0300000002009764
:0C009700787FE4F6D8FD7581140200DECD
:10000300BB010CE58229F582E5833AF583E02250B2
:1000130006E92582F8E622BBFE06E92582F8E222FC
:0D002300E58229F582E5833AF583E4932216
:10003000EF8DF0A4A8F0CF8CF0A428CE8DF0A42EE4
:02004000FE229E
:10004200BC000BBE0029EF8DF084FFADF022E4CCA2
:10005200F875F008EF2FFFEE33FEEC33FCEE9DEC6B
:10006200984005FCEE9DFE0FD5F0E9E4CEFD22EDB1
:10007200F8F5F0EE8420D21CFEADF075F008EF2FFB
:10008200FFED33FD4007985006D5F0F222C398FDEC
:050092000FD5F0EA2289
:1000A300020123E493A3F8E493A34003F68001F24F
:1000B30008DFF48029E493A3F85407240CC8C3335E
:1000C300C4540F4420C8834004F456800146F6DF2D
:1000D300E4800B0102040810204080900337E47E83
:1000E300019360BCA3FF543F30E509541FFEE49322
:1000F300A360010ECF54C025E060A840B8E493A3E9
:10010300FAE493A3F8E493A3C8C582C8CAC583CA13
:10011300F0A3C8C582C8CAC583CADFE9DEE780BECB
:01033B0000C1
:00000001FF
